{
  "_format": "hh-sol-artifact-1",
  "contractName": "AirDropToken",
  "sourceName": "contracts/AirDropToken.sol",
  "abi": [
    {
      "inputs": [
        {
          "internalType": "contract IFakeToken",
          "name": "_tokenAddress",
          "type": "address"
        },
        {
          "internalType": "address[]",
          "name": "_addressArr",
          "type": "address[]"
        },
        {
          "internalType": "uint256[]",
          "name": "_amountArray",
          "type": "uint256[]"
        }
      ],
      "name": "airDropWithTransfer",
      "outputs": [],
      "stateMutability": "nonpayable",
      "type": "function"
    },
    {
      "inputs": [
        {
          "internalType": "contract IFakeToken",
          "name": "_tokenAddress",
          "type": "address"
        },
        {
          "internalType": "address[]",
          "name": "_addressArr",
          "type": "address[]"
        },
        {
          "internalType": "uint256[]",
          "name": "_amountArray",
          "type": "uint256[]"
        }
      ],
      "name": "airDropWithTransferFrom",
      "outputs": [],
      "stateMutability": "nonpayable",
      "type": "function"
    }
  ],
  "bytecode": "0x608060405234801561001057600080fd5b506106e8806100206000396000f3fe608060405234801561001057600080fd5b50600436106100365760003560e01c806366e7b8031461003b578063eb81f51614610057575b600080fd5b61005560048036038101906100509190610515565b610073565b005b610071600480360381019061006c9190610515565b610144565b005b60005b82518160ff16101561013e578373ffffffffffffffffffffffffffffffffffffffff166323b872dd33858460ff16815181106100b5576100b46105a0565b5b6020026020010151858560ff16815181106100d3576100d26105a0565b5b60200260200101516040518463ffffffff1660e01b81526004016100f9939291906105ed565b600060405180830381600087803b15801561011357600080fd5b505af1158015610127573d6000803e3d6000fd5b50505050808061013690610660565b915050610076565b50505050565b60005b82518160ff16101561020d578373ffffffffffffffffffffffffffffffffffffffff1663a9059cbb848360ff1681518110610185576101846105a0565b5b6020026020010151848460ff16815181106101a3576101a26105a0565b5b60200260200101516040518363ffffffff1660e01b81526004016101c8929190610689565b600060405180830381600087803b1580156101e257600080fd5b505af11580156101f6573d6000803e3d6000fd5b50505050808061020590610660565b915050610147565b50505050565b6000604051905090565b600080fd5b600080fd5b600073ffffffffffffffffffffffffffffffffffffffff82169050919050565b600061025282610227565b9050919050565b600061026482610247565b9050919050565b61027481610259565b811461027f57600080fd5b50565b6000813590506102918161026b565b92915050565b600080fd5b6000601f19601f8301169050919050565b7f4e487b7100000000000000000000000000000000000000000000000000000000600052604160045260246000fd5b6102e58261029c565b810181811067ffffffffffffffff82111715610304576103036102ad565b5b80604052505050565b6000610317610213565b905061032382826102dc565b919050565b600067ffffffffffffffff821115610343576103426102ad565b5b602082029050602081019050919050565b600080fd5b61036281610247565b811461036d57600080fd5b50565b60008135905061037f81610359565b92915050565b600061039861039384610328565b61030d565b905080838252602082019050602084028301858111156103bb576103ba610354565b5b835b818110156103e457806103d08882610370565b8452602084019350506020810190506103bd565b5050509392505050565b600082601f83011261040357610402610297565b5b8135610413848260208601610385565b91505092915050565b600067ffffffffffffffff821115610437576104366102ad565b5b602082029050602081019050919050565b6000819050919050565b61045b81610448565b811461046657600080fd5b50565b60008135905061047881610452565b92915050565b600061049161048c8461041c565b61030d565b905080838252602082019050602084028301858111156104b4576104b3610354565b5b835b818110156104dd57806104c98882610469565b8452602084019350506020810190506104b6565b5050509392505050565b600082601f8301126104fc576104fb610297565b5b813561050c84826020860161047e565b91505092915050565b60008060006060848603121561052e5761052d61021d565b5b600061053c86828701610282565b935050602084013567ffffffffffffffff81111561055d5761055c610222565b5b610569868287016103ee565b925050604084013567ffffffffffffffff81111561058a57610589610222565b5b610596868287016104e7565b9150509250925092565b7f4e487b7100000000000000000000000000000000000000000000000000000000600052603260045260246000fd5b6105d881610247565b82525050565b6105e781610448565b82525050565b600060608201905061060260008301866105cf565b61060f60208301856105cf565b61061c60408301846105de565b949350505050565b7f4e487b7100000000000000000000000000000000000000000000000000000000600052601160045260246000fd5b600060ff82169050919050565b600061066b82610653565b915060ff820361067e5761067d610624565b5b600182019050919050565b600060408201905061069e60008301856105cf565b6106ab60208301846105de565b939250505056fea26469706673582212206c691f776d224c202ff08cec7de52bab2a23bf01510928dd61164fa8e393fdd664736f6c63430008120033",
  "linkReferences": {},
  "deployedLinkReferences": {}
}